{
  "_format": "hh-sol-artifact-1",
  "contractName": "RESToken",
  "sourceName": "contracts/RESToken.sol",
  "abi": [
    {
      "inputs": [
        {
          "internalType": "address",
          "name": "initialOwner",
          "type": "address"
        }
      ],
      "stateMutability": "nonpayable",
      "type": "constructor"
    },
    {
      "inputs": [
        {
          "internalType": "address",
          "name": "spender",
          "type": "address"
        },
        {
          "internalType": "uint256",
          "name": "allowance",
          "type": "uint256"
        },
        {
          "internalType": "uint256",
          "name": "needed",
          "type": "uint256"
        }
      ],
      "name": "ERC20InsufficientAllowance",
      "type": "error"
    },
    {
      "inputs": [
        {
          "internalType": "address",
          "name": "sender",
          "type": "address"
        },
        {
          "internalType": "uint256",
          "name": "balance",
          "type": "uint256"
        },
        {
          "internalType": "uint256",
          "name": "needed",
          "type": "uint256"
        }
      ],
      "name": "ERC20InsufficientBalance",
      "type": "error"
    },
    {
      "inputs": [
        {
          "internalType": "address",
          "name": "approver",
          "type": "address"
        }
      ],
      "name": "ERC20InvalidApprover",
      "type": "error"
    },
    {
      "inputs": [
        {
          "internalType": "address",
          "name": "receiver",
          "type": "address"
        }
      ],
      "name": "ERC20InvalidReceiver",
      "type": "error"
    },
    {
      "inputs": [
        {
          "internalType": "address",
          "name": "sender",
          "type": "address"
        }
      ],
      "name": "ERC20InvalidSender",
      "type": "error"
    },
    {
      "inputs": [
        {
          "internalType": "address",
          "name": "spender",
          "type": "address"
        }
      ],
      "name": "ERC20InvalidSpender",
      "type": "error"
    },
    {
      "inputs": [
        {
          "internalType": "address",
          "name": "owner",
          "type": "address"
        }
      ],
      "name": "OwnableInvalidOwner",
      "type": "error"
    },
    {
      "inputs": [
        {
          "internalType": "address",
          "name": "account",
          "type": "address"
        }
      ],
      "name": "OwnableUnauthorizedAccount",
      "type": "error"
    },
    {
      "anonymous": false,
      "inputs": [
        {
          "indexed": true,
          "internalType": "address",
          "name": "owner",
          "type": "address"
        },
        {
          "indexed": true,
          "internalType": "address",
          "name": "spender",
          "type": "address"
        },
        {
          "indexed": false,
          "internalType": "uint256",
          "name": "value",
          "type": "uint256"
        }
      ],
      "name": "Approval",
      "type": "event"
    },
    {
      "anonymous": false,
      "inputs": [
        {
          "indexed": true,
          "internalType": "address",
          "name": "minter",
          "type": "address"
        }
      ],
      "name": "MinterAdded",
      "type": "event"
    },
    {
      "anonymous": false,
      "inputs": [
        {
          "indexed": true,
          "internalType": "address",
          "name": "minter",
          "type": "address"
        }
      ],
      "name": "MinterRemoved",
      "type": "event"
    },
    {
      "anonymous": false,
      "inputs": [
        {
          "indexed": true,
          "internalType": "address",
          "name": "previousOwner",
          "type": "address"
        },
        {
          "indexed": true,
          "internalType": "address",
          "name": "newOwner",
          "type": "address"
        }
      ],
      "name": "OwnershipTransferred",
      "type": "event"
    },
    {
      "anonymous": false,
      "inputs": [
        {
          "indexed": true,
          "internalType": "address",
          "name": "to",
          "type": "address"
        },
        {
          "indexed": false,
          "internalType": "uint256",
          "name": "amount",
          "type": "uint256"
        },
        {
          "indexed": false,
          "internalType": "string",
          "name": "reason",
          "type": "string"
        }
      ],
      "name": "TokensMinted",
      "type": "event"
    },
    {
      "anonymous": false,
      "inputs": [
        {
          "indexed": true,
          "internalType": "address",
          "name": "from",
          "type": "address"
        },
        {
          "indexed": true,
          "internalType": "address",
          "name": "to",
          "type": "address"
        },
        {
          "indexed": false,
          "internalType": "uint256",
          "name": "value",
          "type": "uint256"
        }
      ],
      "name": "Transfer",
      "type": "event"
    },
    {
      "inputs": [],
      "name": "MAX_SUPPLY",
      "outputs": [
        {
          "internalType": "uint256",
          "name": "",
          "type": "uint256"
        }
      ],
      "stateMutability": "view",
      "type": "function"
    },
    {
      "inputs": [
        {
          "internalType": "address",
          "name": "minter",
          "type": "address"
        }
      ],
      "name": "addMinter",
      "outputs": [],
      "stateMutability": "nonpayable",
      "type": "function"
    },
    {
      "inputs": [
        {
          "internalType": "address",
          "name": "owner",
          "type": "address"
        },
        {
          "internalType": "address",
          "name": "spender",
          "type": "address"
        }
      ],
      "name": "allowance",
      "outputs": [
        {
          "internalType": "uint256",
          "name": "",
          "type": "uint256"
        }
      ],
      "stateMutability": "view",
      "type": "function"
    },
    {
      "inputs": [
        {
          "internalType": "address",
          "name": "spender",
          "type": "address"
        },
        {
          "internalType": "uint256",
          "name": "value",
          "type": "uint256"
        }
      ],
      "name": "approve",
      "outputs": [
        {
          "internalType": "bool",
          "name": "",
          "type": "bool"
        }
      ],
      "stateMutability": "nonpayable",
      "type": "function"
    },
    {
      "inputs": [
        {
          "internalType": "address",
          "name": "account",
          "type": "address"
        }
      ],
      "name": "balanceOf",
      "outputs": [
        {
          "internalType": "uint256",
          "name": "",
          "type": "uint256"
        }
      ],
      "stateMutability": "view",
      "type": "function"
    },
    {
      "inputs": [
        {
          "internalType": "address[]",
          "name": "recipients",
          "type": "address[]"
        },
        {
          "internalType": "uint256[]",
          "name": "amounts",
          "type": "uint256[]"
        },
        {
          "internalType": "string",
          "name": "reason",
          "type": "string"
        }
      ],
      "name": "batchMint",
      "outputs": [],
      "stateMutability": "nonpayable",
      "type": "function"
    },
    {
      "inputs": [
        {
          "internalType": "uint256",
          "name": "value",
          "type": "uint256"
        }
      ],
      "name": "burn",
      "outputs": [],
      "stateMutability": "nonpayable",
      "type": "function"
    },
    {
      "inputs": [
        {
          "internalType": "address",
          "name": "account",
          "type": "address"
        },
        {
          "internalType": "uint256",
          "name": "value",
          "type": "uint256"
        }
      ],
      "name": "burnFrom",
      "outputs": [],
      "stateMutability": "nonpayable",
      "type": "function"
    },
    {
      "inputs": [],
      "name": "decimals",
      "outputs": [
        {
          "internalType": "uint8",
          "name": "",
          "type": "uint8"
        }
      ],
      "stateMutability": "view",
      "type": "function"
    },
    {
      "inputs": [
        {
          "internalType": "address",
          "name": "",
          "type": "address"
        }
      ],
      "name": "isMinter",
      "outputs": [
        {
          "internalType": "bool",
          "name": "",
          "type": "bool"
        }
      ],
      "stateMutability": "view",
      "type": "function"
    },
    {
      "inputs": [
        {
          "internalType": "address",
          "name": "to",
          "type": "address"
        },
        {
          "internalType": "uint256",
          "name": "amount",
          "type": "uint256"
        },
        {
          "internalType": "string",
          "name": "reason",
          "type": "string"
        }
      ],
      "name": "mint",
      "outputs": [],
      "stateMutability": "nonpayable",
      "type": "function"
    },
    {
      "inputs": [],
      "name": "name",
      "outputs": [
        {
          "internalType": "string",
          "name": "",
          "type": "string"
        }
      ],
      "stateMutability": "view",
      "type": "function"
    },
    {
      "inputs": [],
      "name": "owner",
      "outputs": [
        {
          "internalType": "address",
          "name": "",
          "type": "address"
        }
      ],
      "stateMutability": "view",
      "type": "function"
    },
    {
      "inputs": [],
      "name": "remainingSupply",
      "outputs": [
        {
          "internalType": "uint256",
          "name": "",
          "type": "uint256"
        }
      ],
      "stateMutability": "view",
      "type": "function"
    },
    {
      "inputs": [
        {
          "internalType": "address",
          "name": "minter",
          "type": "address"
        }
      ],
      "name": "removeMinter",
      "outputs": [],
      "stateMutability": "nonpayable",
      "type": "function"
    },
    {
      "inputs": [],
      "name": "renounceOwnership",
      "outputs": [],
      "stateMutability": "nonpayable",
      "type": "function"
    },
    {
      "inputs": [],
      "name": "symbol",
      "outputs": [
        {
          "internalType": "string",
          "name": "",
          "type": "string"
        }
      ],
      "stateMutability": "view",
      "type": "function"
    },
    {
      "inputs": [],
      "name": "totalSupply",
      "outputs": [
        {
          "internalType": "uint256",
          "name": "",
          "type": "uint256"
        }
      ],
      "stateMutability": "view",
      "type": "function"
    },
    {
      "inputs": [
        {
          "internalType": "address",
          "name": "to",
          "type": "address"
        },
        {
          "internalType": "uint256",
          "name": "value",
          "type": "uint256"
        }
      ],
      "name": "transfer",
      "outputs": [
        {
          "internalType": "bool",
          "name": "",
          "type": "bool"
        }
      ],
      "stateMutability": "nonpayable",
      "type": "function"
    },
    {
      "inputs": [
        {
          "internalType": "address",
          "name": "from",
          "type": "address"
        },
        {
          "internalType": "address",
          "name": "to",
          "type": "address"
        },
        {
          "internalType": "uint256",
          "name": "value",
          "type": "uint256"
        }
      ],
      "name": "transferFrom",
      "outputs": [
        {
          "internalType": "bool",
          "name": "",
          "type": "bool"
        }
      ],
      "stateMutability": "nonpayable",
      "type": "function"
    },
    {
      "inputs": [
        {
          "internalType": "address",
          "name": "newOwner",
          "type": "address"
        }
      ],
      "name": "transferOwnership",
      "outputs": [],
      "stateMutability": "nonpayable",
      "type": "function"
    }
  ],
  "bytecode": "0x608060405234801561001057600080fd5b506040516116f73803806116f783398101604081905261002f9161016c565b806040518060400160405280600f81526020016e2932b9b7b730b731b2902a37b5b2b760891b8152506040518060400160405280600381526020016252455360e81b8152508160039081610083919061023b565b506004610090828261023b565b5050506001600160a01b0381166100c157604051631e4fbdf760e01b81526000600482015260240160405180910390fd5b6100ca8161011a565b506001600160a01b038116600081815260066020526040808220805460ff19166001179055517f6ae172837ea30b801fbfcdd4108aa1d5bf8ff775444fd70256b44e6bf3dfc3f69190a2506102f9565b600580546001600160a01b038381166001600160a01b0319831681179093556040519116919082907f8be0079c531659141344cd1fd0a4f28419497f9722a3daafe3b4186f6b6457e090600090a35050565b60006020828403121561017e57600080fd5b81516001600160a01b038116811461019557600080fd5b9392505050565b634e487b7160e01b600052604160045260246000fd5b600181811c908216806101c657607f821691505b6020821081036101e657634e487b7160e01b600052602260045260246000fd5b50919050565b601f82111561023657806000526020600020601f840160051c810160208510156102135750805b601f840160051c820191505b81811015610233576000815560010161021f565b50505b505050565b81516001600160401b038111156102545761025461019c565b6102688161026284546101b2565b846101ec565b6020601f82116001811461029c57600083156102845750848201515b600019600385901b1c1916600184901b178455610233565b600084815260208120601f198516915b828110156102cc57878501518255602094850194600190920191016102ac565b50848210156102ea5786840151600019600387901b60f8161c191681555b50505050600190811b01905550565b6113ef806103086000396000f3fe608060405234801561001057600080fd5b50600436106101375760003560e01c8063715018a6116100b8578063a9059cbb1161007c578063a9059cbb14610279578063aa271e1a1461028c578063d3fc9864146102af578063da0239a6146102c2578063dd62ed3e146102ca578063f2fde38b1461030357600080fd5b8063715018a61461022857806379cc6790146102305780638da5cb5b1461024357806395d89b411461025e578063983b2d561461026657600080fd5b8063313ce567116100ff578063313ce567146101b757806332cb6b0c146101c657806337f9fbdd146101d957806342966c68146101ec57806370a08231146101ff57600080fd5b806306fdde031461013c578063095ea7b31461015a57806318160ddd1461017d57806323b872dd1461018f5780633092afd5146101a2575b600080fd5b610144610316565b6040516101519190610f03565b60405180910390f35b61016d610168366004610f39565b6103a8565b6040519015158152602001610151565b6002545b604051908152602001610151565b61016d61019d366004610f63565b6103c2565b6101b56101b0366004610fa0565b6103e6565b005b60405160128152602001610151565b6101816b033b2e3c9fd0803ce800000081565b6101b56101e7366004611103565b6104ae565b6101b56101fa3660046111f7565b6107a4565b61018161020d366004610fa0565b6001600160a01b031660009081526020819052604090205490565b6101b56107b1565b6101b561023e366004610f39565b6107c5565b6005546040516001600160a01b039091168152602001610151565b6101446107de565b6101b5610274366004610fa0565b6107ed565b61016d610287366004610f39565b61090e565b61016d61029a366004610fa0565b60066020526000908152604090205460ff1681565b6101b56102bd366004611210565b61091c565b610181610a82565b6101816102d8366004611251565b6001600160a01b03918216600090815260016020908152604080832093909416825291909152205490565b6101b5610311366004610fa0565b610aa8565b60606003805461032590611284565b80601f016020809104026020016040519081016040528092919081815260200182805461035190611284565b801561039e5780601f106103735761010080835404028352916020019161039e565b820191906000526020600020905b81548152906001019060200180831161038157829003601f168201915b5050505050905090565b6000336103b6818585610ae3565b60019150505b92915050565b6000336103d0858285610af5565b6103db858585610b74565b506001949350505050565b6103ee610bd3565b6001600160a01b03811660009081526006602052604090205460ff166104655760405162461bcd60e51b815260206004820152602160248201527f524553546f6b656e3a2061646472657373206973206e6f742061206d696e74656044820152603960f91b60648201526084015b60405180910390fd5b6001600160a01b038116600081815260066020526040808220805460ff19169055517fe94479a9f7e1952cc78f2d6baab678adc1b772d936c6583def489e524cb666929190a250565b3360009081526006602052604090205460ff1661050d5760405162461bcd60e51b815260206004820181905260248201527f524553546f6b656e3a2063616c6c6572206973206e6f742061206d696e746572604482015260640161045c565b815183511461055e5760405162461bcd60e51b815260206004820181905260248201527f524553546f6b656e3a20617272617973206c656e677468206d69736d61746368604482015260640161045c565b60008351116105a85760405162461bcd60e51b8152602060048201526016602482015275524553546f6b656e3a20656d7074792061727261797360501b604482015260640161045c565b6000805b83518110156105e4578381815181106105c7576105c76112be565b6020026020010151826105da91906112ea565b91506001016105ac565b506b033b2e3c9fd0803ce8000000816105fc60025490565b61060691906112ea565b11156106245760405162461bcd60e51b815260040161045c906112fd565b60005b845181101561079d5760006001600160a01b031685828151811061064d5761064d6112be565b60200260200101516001600160a01b0316036106ab5760405162461bcd60e51b815260206004820152601e60248201527f524553546f6b656e3a206d696e7420746f207a65726f20616464726573730000604482015260640161045c565b60008482815181106106bf576106bf6112be565b6020026020010151116106e45760405162461bcd60e51b815260040161045c9061133e565b6107208582815181106106f9576106f96112be565b6020026020010151858381518110610713576107136112be565b6020026020010151610c00565b848181518110610732576107326112be565b60200260200101516001600160a01b03167f9d89e36eadf856db0ad9ffb5a569e07f95634dddd9501141ecf04820484ad0dc858381518110610776576107766112be565b60200260200101518560405161078d929190611385565b60405180910390a2600101610627565b5050505050565b6107ae3382610c36565b50565b6107b9610bd3565b6107c36000610c6c565b565b6107d0823383610af5565b6107da8282610c36565b5050565b60606004805461032590611284565b6107f5610bd3565b6001600160a01b03811661084b5760405162461bcd60e51b815260206004820181905260248201527f524553546f6b656e3a206d696e746572206973207a65726f2061646472657373604482015260640161045c565b6001600160a01b03811660009081526006602052604090205460ff16156108c25760405162461bcd60e51b815260206004820152602560248201527f524553546f6b656e3a206164647265737320697320616c72656164792061206d60448201526434b73a32b960d91b606482015260840161045c565b6001600160a01b038116600081815260066020526040808220805460ff19166001179055517f6ae172837ea30b801fbfcdd4108aa1d5bf8ff775444fd70256b44e6bf3dfc3f69190a250565b6000336103b6818585610b74565b3360009081526006602052604090205460ff1661097b5760405162461bcd60e51b815260206004820181905260248201527f524553546f6b656e3a2063616c6c6572206973206e6f742061206d696e746572604482015260640161045c565b6001600160a01b0383166109d15760405162461bcd60e51b815260206004820152601e60248201527f524553546f6b656e3a206d696e7420746f207a65726f20616464726573730000604482015260640161045c565b600082116109f15760405162461bcd60e51b815260040161045c9061133e565b6b033b2e3c9fd0803ce800000082610a0860025490565b610a1291906112ea565b1115610a305760405162461bcd60e51b815260040161045c906112fd565b610a3a8383610c00565b826001600160a01b03167f9d89e36eadf856db0ad9ffb5a569e07f95634dddd9501141ecf04820484ad0dc8383604051610a75929190611385565b60405180910390a2505050565b6000610a8d60025490565b610aa3906b033b2e3c9fd0803ce80000006113a6565b905090565b610ab0610bd3565b6001600160a01b038116610ada57604051631e4fbdf760e01b81526000600482015260240161045c565b6107ae81610c6c565b610af08383836001610cbe565b505050565b6001600160a01b03838116600090815260016020908152604080832093861683529290522054600019811015610b6e5781811015610b5f57604051637dc7a0d960e11b81526001600160a01b0384166004820152602481018290526044810183905260640161045c565b610b6e84848484036000610cbe565b50505050565b6001600160a01b038316610b9e57604051634b637e8f60e11b81526000600482015260240161045c565b6001600160a01b038216610bc85760405163ec442f0560e01b81526000600482015260240161045c565b610af0838383610d93565b6005546001600160a01b031633146107c35760405163118cdaa760e01b815233600482015260240161045c565b6001600160a01b038216610c2a5760405163ec442f0560e01b81526000600482015260240161045c565b6107da60008383610d93565b6001600160a01b038216610c6057604051634b637e8f60e11b81526000600482015260240161045c565b6107da82600083610d93565b600580546001600160a01b038381166001600160a01b0319831681179093556040519116919082907f8be0079c531659141344cd1fd0a4f28419497f9722a3daafe3b4186f6b6457e090600090a35050565b6001600160a01b038416610ce85760405163e602df0560e01b81526000600482015260240161045c565b6001600160a01b038316610d1257604051634a1406b160e11b81526000600482015260240161045c565b6001600160a01b0380851660009081526001602090815260408083209387168352929052208290558015610b6e57826001600160a01b0316846001600160a01b03167f8c5be1e5ebec7d5bd14f71427d1e84f3dd0314c0f7b2291e5b200ac8c7c3b92584604051610d8591815260200190565b60405180910390a350505050565b6001600160a01b038316610dbe578060026000828254610db391906112ea565b90915550610e309050565b6001600160a01b03831660009081526020819052604090205481811015610e115760405163391434e360e21b81526001600160a01b0385166004820152602481018290526044810183905260640161045c565b6001600160a01b03841660009081526020819052604090209082900390555b6001600160a01b038216610e4c57600280548290039055610e6b565b6001600160a01b03821660009081526020819052604090208054820190555b816001600160a01b0316836001600160a01b03167fddf252ad1be2c89b69c2b068fc378daa952ba7f163c4a11628f55a4df523b3ef83604051610eb091815260200190565b60405180910390a3505050565b6000815180845260005b81811015610ee357602081850181015186830182015201610ec7565b506000602082860101526020601f19601f83011685010191505092915050565b602081526000610f166020830184610ebd565b9392505050565b80356001600160a01b0381168114610f3457600080fd5b919050565b60008060408385031215610f4c57600080fd5b610f5583610f1d565b946020939093013593505050565b600080600060608486031215610f7857600080fd5b610f8184610f1d565b9250610f8f60208501610f1d565b929592945050506040919091013590565b600060208284031215610fb257600080fd5b610f1682610f1d565b634e487b7160e01b600052604160045260246000fd5b604051601f8201601f1916810167ffffffffffffffff81118282101715610ffa57610ffa610fbb565b604052919050565b600067ffffffffffffffff82111561101c5761101c610fbb565b5060051b60200190565b600082601f83011261103757600080fd5b813561104a61104582611002565b610fd1565b8082825260208201915060208360051b86010192508583111561106c57600080fd5b602085015b83811015611089578035835260209283019201611071565b5095945050505050565b600082601f8301126110a457600080fd5b813567ffffffffffffffff8111156110be576110be610fbb565b6110d1601f8201601f1916602001610fd1565b8181528460208386010111156110e657600080fd5b816020850160208301376000918101602001919091529392505050565b60008060006060848603121561111857600080fd5b833567ffffffffffffffff81111561112f57600080fd5b8401601f8101861361114057600080fd5b803561114e61104582611002565b8082825260208201915060208360051b85010192508883111561117057600080fd5b6020840193505b828410156111995761118884610f1d565b825260209384019390910190611177565b9550505050602084013567ffffffffffffffff8111156111b857600080fd5b6111c486828701611026565b925050604084013567ffffffffffffffff8111156111e157600080fd5b6111ed86828701611093565b9150509250925092565b60006020828403121561120957600080fd5b5035919050565b60008060006060848603121561122557600080fd5b61122e84610f1d565b925060208401359150604084013567ffffffffffffffff8111156111e157600080fd5b6000806040838503121561126457600080fd5b61126d83610f1d565b915061127b60208401610f1d565b90509250929050565b600181811c9082168061129857607f821691505b6020821081036112b857634e487b7160e01b600052602260045260246000fd5b50919050565b634e487b7160e01b600052603260045260246000fd5b634e487b7160e01b600052601160045260246000fd5b808201808211156103bc576103bc6112d4565b60208082526021908201527f524553546f6b656e3a20776f756c6420657863656564206d617820737570706c6040820152607960f81b606082015260800190565b60208082526027908201527f524553546f6b656e3a20616d6f756e74206d75737420626520677265617465726040820152660207468616e20360cc1b606082015260800190565b82815260406020820152600061139e6040830184610ebd565b949350505050565b818103818111156103bc576103bc6112d456fea264697066735822122015bda1eb67c7a45d1dfd4f47baf70459de76d38166b8b8595421f9b7f94dda8f64736f6c634300081c0033",
  "linkReferences": {},
  "deployedLinkReferences": {}
}